{
  "_format": "hh-sol-artifact-1",
  "contractName": "SSGNFT",
  "sourceName": "contracts/SSGNFT.sol",
  "abi": [
    {
      "inputs": [
        {
          "internalType": "uint256",
          "name": "_totalSupply",
          "type": "uint256"
        }
      ],
      "stateMutability": "nonpayable",
      "type": "constructor"
    },
    {
      "anonymous": false,
      "inputs": [
        {
          "indexed": true,
          "internalType": "address",
          "name": "owner",
          "type": "address"
        },
        {
          "indexed": true,
          "internalType": "address",
          "name": "approved",
          "type": "address"
        },
        {
          "indexed": true,
          "internalType": "uint256",
          "name": "tokenId",
          "type": "uint256"
        }
      ],
      "name": "Approval",
      "type": "event"
    },
    {
      "anonymous": false,
      "inputs": [
        {
          "indexed": true,
          "internalType": "address",
          "name": "owner",
          "type": "address"
        },
        {
          "indexed": true,
          "internalType": "address",
          "name": "operator",
          "type": "address"
        },
        {
          "indexed": false,
          "internalType": "bool",
          "name": "approved",
          "type": "bool"
        }
      ],
      "name": "ApprovalForAll",
      "type": "event"
    },
    {
      "anonymous": false,
      "inputs": [
        {
          "indexed": true,
          "internalType": "address",
          "name": "from",
          "type": "address"
        },
        {
          "indexed": true,
          "internalType": "address",
          "name": "to",
          "type": "address"
        },
        {
          "indexed": true,
          "internalType": "uint256",
          "name": "tokenId",
          "type": "uint256"
        }
      ],
      "name": "Transfer",
      "type": "event"
    },
    {
      "anonymous": false,
      "inputs": [
        {
          "indexed": false,
          "internalType": "address",
          "name": "sender",
          "type": "address"
        },
        {
          "indexed": false,
          "internalType": "uint256",
          "name": "tokenId",
          "type": "uint256"
        }
      ],
      "name": "nftMinted",
      "type": "event"
    },
    {
      "inputs": [
        {
          "internalType": "address",
          "name": "to",
          "type": "address"
        },
        {
          "internalType": "uint256",
          "name": "tokenId",
          "type": "uint256"
        }
      ],
      "name": "approve",
      "outputs": [],
      "stateMutability": "nonpayable",
      "type": "function"
    },
    {
      "inputs": [
        {
          "internalType": "address",
          "name": "owner",
          "type": "address"
        }
      ],
      "name": "balanceOf",
      "outputs": [
        {
          "internalType": "uint256",
          "name": "",
          "type": "uint256"
        }
      ],
      "stateMutability": "view",
      "type": "function"
    },
    {
      "inputs": [
        {
          "internalType": "uint256",
          "name": "tokenId",
          "type": "uint256"
        }
      ],
      "name": "getApproved",
      "outputs": [
        {
          "internalType": "address",
          "name": "",
          "type": "address"
        }
      ],
      "stateMutability": "view",
      "type": "function"
    },
    {
      "inputs": [],
      "name": "getMintedNfts",
      "outputs": [
        {
          "internalType": "uint256",
          "name": "",
          "type": "uint256"
        }
      ],
      "stateMutability": "view",
      "type": "function"
    },
    {
      "inputs": [
        {
          "internalType": "address",
          "name": "owner",
          "type": "address"
        },
        {
          "internalType": "address",
          "name": "operator",
          "type": "address"
        }
      ],
      "name": "isApprovedForAll",
      "outputs": [
        {
          "internalType": "bool",
          "name": "",
          "type": "bool"
        }
      ],
      "stateMutability": "view",
      "type": "function"
    },
    {
      "inputs": [],
      "name": "mintNFT",
      "outputs": [],
      "stateMutability": "nonpayable",
      "type": "function"
    },
    {
      "inputs": [],
      "name": "name",
      "outputs": [
        {
          "internalType": "string",
          "name": "",
          "type": "string"
        }
      ],
      "stateMutability": "view",
      "type": "function"
    },
    {
      "inputs": [
        {
          "internalType": "uint256",
          "name": "tokenId",
          "type": "uint256"
        }
      ],
      "name": "ownerOf",
      "outputs": [
        {
          "internalType": "address",
          "name": "",
          "type": "address"
        }
      ],
      "stateMutability": "view",
      "type": "function"
    },
    {
      "inputs": [
        {
          "internalType": "uint256",
          "name": "tokenId",
          "type": "uint256"
        }
      ],
      "name": "pickRandomGradientEnd",
      "outputs": [
        {
          "internalType": "string",
          "name": "",
          "type": "string"
        }
      ],
      "stateMutability": "view",
      "type": "function"
    },
    {
      "inputs": [
        {
          "internalType": "uint256",
          "name": "tokenId",
          "type": "uint256"
        }
      ],
      "name": "pickRandomGradientStart",
      "outputs": [
        {
          "internalType": "string",
          "name": "",
          "type": "string"
        }
      ],
      "stateMutability": "view",
      "type": "function"
    },
    {
      "inputs": [
        {
          "internalType": "address",
          "name": "from",
          "type": "address"
        },
        {
          "internalType": "address",
          "name": "to",
          "type": "address"
        },
        {
          "internalType": "uint256",
          "name": "tokenId",
          "type": "uint256"
        }
      ],
      "name": "safeTransferFrom",
      "outputs": [],
      "stateMutability": "nonpayable",
      "type": "function"
    },
    {
      "inputs": [
        {
          "internalType": "address",
          "name": "from",
          "type": "address"
        },
        {
          "internalType": "address",
          "name": "to",
          "type": "address"
        },
        {
          "internalType": "uint256",
          "name": "tokenId",
          "type": "uint256"
        },
        {
          "internalType": "bytes",
          "name": "_data",
          "type": "bytes"
        }
      ],
      "name": "safeTransferFrom",
      "outputs": [],
      "stateMutability": "nonpayable",
      "type": "function"
    },
    {
      "inputs": [
        {
          "internalType": "address",
          "name": "operator",
          "type": "address"
        },
        {
          "internalType": "bool",
          "name": "approved",
          "type": "bool"
        }
      ],
      "name": "setApprovalForAll",
      "outputs": [],
      "stateMutability": "nonpayable",
      "type": "function"
    },
    {
      "inputs": [
        {
          "internalType": "bytes4",
          "name": "interfaceId",
          "type": "bytes4"
        }
      ],
      "name": "supportsInterface",
      "outputs": [
        {
          "internalType": "bool",
          "name": "",
          "type": "bool"
        }
      ],
      "stateMutability": "view",
      "type": "function"
    },
    {
      "inputs": [],
      "name": "symbol",
      "outputs": [
        {
          "internalType": "string",
          "name": "",
          "type": "string"
        }
      ],
      "stateMutability": "view",
      "type": "function"
    },
    {
      "inputs": [
        {
          "internalType": "uint256",
          "name": "tokenId",
          "type": "uint256"
        }
      ],
      "name": "tokenURI",
      "outputs": [
        {
          "internalType": "string",
          "name": "",
          "type": "string"
        }
      ],
      "stateMutability": "view",
      "type": "function"
    },
    {
      "inputs": [],
      "name": "totalSupply",
      "outputs": [
        {
          "internalType": "uint256",
          "name": "",
          "type": "uint256"
        }
      ],
      "stateMutability": "view",
      "type": "function"
    },
    {
      "inputs": [
        {
          "internalType": "address",
          "name": "from",
          "type": "address"
        },
        {
          "internalType": "address",
          "name": "to",
          "type": "address"
        },
        {
          "internalType": "uint256",
          "name": "tokenId",
          "type": "uint256"
        }
      ],
      "name": "transferFrom",
      "outputs": [],
      "stateMutability": "nonpayable",
      "type": "function"
    }
  ],
  "bytecode": "0x608060405260405180610100016040528060c78152602001620042ab60c79139600990805190602001906200003692919062000802565b506040518060600160405280603881526020016200427360389139600a90805190602001906200006892919062000802565b506040518060e0016040528060ba81526020016200437260ba9139600b90805190602001906200009a92919062000802565b506040518060400160405280600d81526020017f3c2f746578743e3c2f7376673e00000000000000000000000000000000000000815250600c9080519060200190620000e892919062000802565b50604051806101a001604052806040518060400160405280600781526020017f233866303066660000000000000000000000000000000000000000000000000081525081526020016040518060400160405280600781526020017f236666616662640000000000000000000000000000000000000000000000000081525081526020016040518060400160405280600781526020017f233231393362300000000000000000000000000000000000000000000000000081525081526020016040518060400160405280600781526020017f236363326235650000000000000000000000000000000000000000000000000081525081526020016040518060400160405280600781526020017f236465363236320000000000000000000000000000000000000000000000000081525081526020016040518060400160405280600781526020017f236464356538390000000000000000000000000000000000000000000000000081525081526020016040518060400160405280600781526020017f233631343338350000000000000000000000000000000000000000000000000081525081526020016040518060400160405280600781526020017f236565636461330000000000000000000000000000000000000000000000000081525081526020016040518060400160405280600781526020017f236561636461330000000000000000000000000000000000000000000000000081525081526020016040518060400160405280600781526020017f233030303432380000000000000000000000000000000000000000000000000081525081526020016040518060400160405280600781526020017f236464643666330000000000000000000000000000000000000000000000000081525081526020016040518060400160405280600781526020017f236261353337300000000000000000000000000000000000000000000000000081525081526020016040518060400160405280600781526020017f2334353638646300000000000000000000000000000000000000000000000000815250815250600d90600d6200040492919062000893565b50604051806101a001604052806040518060400160405280600781526020017f233030643166660000000000000000000000000000000000000000000000000081525081526020016040518060400160405280600781526020017f236666633361300000000000000000000000000000000000000000000000000081525081526020016040518060400160405280600781526020017f233664643565640000000000000000000000000000000000000000000000000081525081526020016040518060400160405280600781526020017f233735336138380000000000000000000000000000000000000000000000000081525081526020016040518060400160405280600781526020017f236666623838630000000000000000000000000000000000000000000000000081525081526020016040518060400160405280600781526020017f236637626239370000000000000000000000000000000000000000000000000081525081526020016040518060400160405280600781526020017f233531363339350000000000000000000000000000000000000000000000000081525081526020016040518060400160405280600781526020017f236566363239660000000000000000000000000000000000000000000000000081525081526020016040518060400160405280600781526020017f236436616537620000000000000000000000000000000000000000000000000081525081526020016040518060400160405280600781526020017f233030346539320000000000000000000000000000000000000000000000000081525081526020016040518060400160405280600781526020017f236661616361380000000000000000000000000000000000000000000000000081525081526020016040518060400160405280600781526020017f236634653264380000000000000000000000000000000000000000000000000081525081526020016040518060400160405280600781526020017f2362303661623300000000000000000000000000000000000000000000000000815250815250600e90600d6200072092919062000893565b503480156200072e57600080fd5b506040516200442c3803806200442c83398181016040528101906200075491906200099e565b6040518060400160405280600781526020017f5353472d4e4654000000000000000000000000000000000000000000000000008152506040518060400160405280600381526020017f53534700000000000000000000000000000000000000000000000000000000008152508160009080519060200190620007d892919062000802565b508060019080519060200190620007f192919062000802565b505050806008819055505062000a53565b8280546200081090620009d4565b90600052602060002090601f01602090048101928262000834576000855562000880565b82601f106200084f57805160ff191683800117855562000880565b8280016001018555821562000880579182015b828111156200087f57825182559160200191906001019062000862565b5b5090506200088f9190620008fa565b5090565b828054828255906000526020600020908101928215620008e7579160200282015b82811115620008e6578251829080519060200190620008d592919062000802565b5091602001919060010190620008b4565b5b509050620008f6919062000919565b5090565b5b8082111562000915576000816000905550600101620008fb565b5090565b5b808211156200093d576000818162000933919062000941565b506001016200091a565b5090565b5080546200094f90620009d4565b6000825580601f1062000963575062000984565b601f016020900490600052602060002090810190620009839190620008fa565b5b50565b600081519050620009988162000a39565b92915050565b600060208284031215620009b157600080fd5b6000620009c18482850162000987565b91505092915050565b6000819050919050565b60006002820490506001821680620009ed57607f821691505b6020821081141562000a045762000a0362000a0a565b5b50919050565b7f4e487b7100000000000000000000000000000000000000000000000000000000600052602260045260246000fd5b62000a4481620009ca565b811462000a5057600080fd5b50565b6138108062000a636000396000f3fe608060405234801561001057600080fd5b50600436106101165760003560e01c80636352211e116100a2578063b88d4fde11610071578063b88d4fde146102df578063c87b56dd146102fb578063e985e9c51461032b578063f1d9365c1461035b578063fc8a16a01461038b57610116565b80636352211e1461024557806370a082311461027557806395d89b41146102a5578063a22cb465146102c357610116565b8063095ea7b3116100e9578063095ea7b3146101c957806314f710fe146101e557806318160ddd146101ef57806323b872dd1461020d57806342842e0e1461022957610116565b806301ffc9a71461011b5780630359e5da1461014b57806306fdde031461017b578063081812fc14610199575b600080fd5b6101356004803603810190610130919061241a565b6103a9565b6040516101429190613066565b60405180910390f35b6101656004803603810190610160919061246c565b61048b565b6040516101729190613081565b60405180910390f35b6101836105a9565b6040516101909190613081565b60405180910390f35b6101b360048036038101906101ae919061246c565b61063b565b6040516101c09190612fd6565b60405180910390f35b6101e360048036038101906101de91906123de565b6106c0565b005b6101ed6107d8565b005b6101f7610a0b565b6040516102049190613301565b60405180910390f35b610227600480360381019061022291906122d8565b610a11565b005b610243600480360381019061023e91906122d8565b610a71565b005b61025f600480360381019061025a919061246c565b610a91565b60405161026c9190612fd6565b60405180910390f35b61028f600480360381019061028a9190612273565b610b43565b60405161029c9190613301565b60405180910390f35b6102ad610bfb565b6040516102ba9190613081565b60405180910390f35b6102dd60048036038101906102d891906123a2565b610c8d565b005b6102f960048036038101906102f49190612327565b610ca3565b005b6103156004803603810190610310919061246c565b610d05565b6040516103229190613081565b60405180910390f35b6103456004803603810190610340919061229c565b610e57565b6040516103529190613066565b60405180910390f35b6103756004803603810190610370919061246c565b610eeb565b6040516103829190613081565b60405180910390f35b610393611009565b6040516103a09190613301565b60405180910390f35b60007f80ac58cd000000000000000000000000000000000000000000000000000000007bffffffffffffffffffffffffffffffffffffffffffffffffffffffff1916827bffffffffffffffffffffffffffffffffffffffffffffffffffffffff1916148061047457507f5b5e139f000000000000000000000000000000000000000000000000000000007bffffffffffffffffffffffffffffffffffffffffffffffffffffffff1916827bffffffffffffffffffffffffffffffffffffffffffffffffffffffff1916145b8061048457506104838261101a565b5b9050919050565b606060006104bf61049b84611084565b6040516020016104ab9190612f2b565b604051602081830303815290604052611231565b9050600d80549050816104d2919061361b565b9050600d818154811061050e577f4e487b7100000000000000000000000000000000000000000000000000000000600052603260045260246000fd5b906000526020600020018054610523906135a0565b80601f016020809104026020016040519081016040528092919081815260200182805461054f906135a0565b801561059c5780601f106105715761010080835404028352916020019161059c565b820191906000526020600020905b81548152906001019060200180831161057f57829003601f168201915b5050505050915050919050565b6060600080546105b8906135a0565b80601f01602080910402602001604051908101604052809291908181526020018280546105e4906135a0565b80156106315780601f1061060657610100808354040283529160200191610631565b820191906000526020600020905b81548152906001019060200180831161061457829003601f168201915b5050505050905090565b600061064682611264565b610685576040517f08c379a000000000000000000000000000000000000000000000000000000000815260040161067c90613261565b60405180910390fd5b6004600083815260200190815260200160002060009054906101000a900473ffffffffffffffffffffffffffffffffffffffff169050919050565b60006106cb82610a91565b90508073ffffffffffffffffffffffffffffffffffffffff168373ffffffffffffffffffffffffffffffffffffffff16141561073c576040517f08c379a0000000000000000000000000000000000000000000000000000000008152600401610733906132c1565b60405180910390fd5b8073ffffffffffffffffffffffffffffffffffffffff1661075b6112d0565b73ffffffffffffffffffffffffffffffffffffffff16148061078a5750610789816107846112d0565b610e57565b5b6107c9576040517f08c379a00000000000000000000000000000000000000000000000000000000081526004016107c090613181565b60405180910390fd5b6107d383836112d8565b505050565b6107e26007611391565b60085411610825576040517f08c379a000000000000000000000000000000000000000000000000000000000815260040161081c90613221565b60405180910390fd5b60006108316007611391565b9050600061083e8261048b565b9050600061084b83610eeb565b905060008282604051602001610862929190612e7f565b60405160208183030381529060405290506000600984600a85600b8888600c604051602001610898989796959493929190612eae565b604051602081830303815290604052905060006108dd836108b88461139f565b6040516020016108c9929190612f4d565b60405160208183030381529060405261139f565b90506000816040516020016108f29190612fb4565b60405160208183030381529060405290506109416040518060400160405280601581526020017f0a2d2d2d2d2d2d2d2d2d2d2d2d2d2d2d2d2d2d2d2d000000000000000000000081525061155d565b61094a8161155d565b6109886040518060400160405280601581526020017f2d2d2d2d2d2d2d2d2d2d2d2d2d2d2d2d2d2d2d2d0a000000000000000000000081525061155d565b61099233886115f6565b61099c8782611614565b6109a66007611688565b6109c960405180606001604052806025815260200161377660259139883361169e565b7fbbedd439cfe8aa51324de58375e6ffccc4ac766d72b9aaeb8a0e4960923ea41633886040516109fa92919061303d565b60405180910390a150505050505050565b60085481565b610a22610a1c6112d0565b8261173d565b610a61576040517f08c379a0000000000000000000000000000000000000000000000000000000008152600401610a58906132e1565b60405180910390fd5b610a6c83838361181b565b505050565b610a8c83838360405180602001604052806000815250610ca3565b505050565b6000806002600084815260200190815260200160002060009054906101000a900473ffffffffffffffffffffffffffffffffffffffff169050600073ffffffffffffffffffffffffffffffffffffffff168173ffffffffffffffffffffffffffffffffffffffff161415610b3a576040517f08c379a0000000000000000000000000000000000000000000000000000000008152600401610b31906131c1565b60405180910390fd5b80915050919050565b60008073ffffffffffffffffffffffffffffffffffffffff168273ffffffffffffffffffffffffffffffffffffffff161415610bb4576040517f08c379a0000000000000000000000000000000000000000000000000000000008152600401610bab906131a1565b60405180910390fd5b600360008373ffffffffffffffffffffffffffffffffffffffff1673ffffffffffffffffffffffffffffffffffffffff168152602001908152602001600020549050919050565b606060018054610c0a906135a0565b80601f0160208091040260200160405190810160405280929190818152602001828054610c36906135a0565b8015610c835780601f10610c5857610100808354040283529160200191610c83565b820191906000526020600020905b815481529060010190602001808311610c6657829003601f168201915b5050505050905090565b610c9f610c986112d0565b8383611a77565b5050565b610cb4610cae6112d0565b8361173d565b610cf3576040517f08c379a0000000000000000000000000000000000000000000000000000000008152600401610cea906132e1565b60405180910390fd5b610cff84848484611be4565b50505050565b6060610d1082611264565b610d4f576040517f08c379a0000000000000000000000000000000000000000000000000000000008152600401610d4690613241565b60405180910390fd5b6000600660008481526020019081526020016000208054610d6f906135a0565b80601f0160208091040260200160405190810160405280929190818152602001828054610d9b906135a0565b8015610de85780601f10610dbd57610100808354040283529160200191610de8565b820191906000526020600020905b815481529060010190602001808311610dcb57829003601f168201915b505050505090506000610df9611c40565b9050600081511415610e0f578192505050610e52565b600082511115610e44578082604051602001610e2c929190612e5b565b60405160208183030381529060405292505050610e52565b610e4d84611c57565b925050505b919050565b6000600560008473ffffffffffffffffffffffffffffffffffffffff1673ffffffffffffffffffffffffffffffffffffffff16815260200190815260200160002060008373ffffffffffffffffffffffffffffffffffffffff1673ffffffffffffffffffffffffffffffffffffffff16815260200190815260200160002060009054906101000a900460ff16905092915050565b60606000610f1f610efb84611084565b604051602001610f0b9190612f92565b604051602081830303815290604052611231565b9050600e8054905081610f32919061361b565b9050600e8181548110610f6e577f4e487b7100000000000000000000000000000000000000000000000000000000600052603260045260246000fd5b906000526020600020018054610f83906135a0565b80601f0160208091040260200160405190810160405280929190818152602001828054610faf906135a0565b8015610ffc5780601f10610fd157610100808354040283529160200191610ffc565b820191906000526020600020905b815481529060010190602001808311610fdf57829003601f168201915b5050505050915050919050565b60006110156007611391565b905090565b60007f01ffc9a7000000000000000000000000000000000000000000000000000000007bffffffffffffffffffffffffffffffffffffffffffffffffffffffff1916827bffffffffffffffffffffffffffffffffffffffffffffffffffffffff1916149050919050565b606060008214156110cc576040518060400160405280600181526020017f3000000000000000000000000000000000000000000000000000000000000000815250905061122c565b600082905060005b600082146110fe5780806110e7906135d2565b915050600a826110f7919061342b565b91506110d4565b60008167ffffffffffffffff811115611140577f4e487b7100000000000000000000000000000000000000000000000000000000600052604160045260246000fd5b6040519080825280601f01601f1916602001820160405280156111725781602001600182028036833780820191505090505b5090505b600085146112255760018261118b91906134b6565b9150600a8561119a919061361b565b60306111a691906133d5565b60f81b8183815181106111e2577f4e487b7100000000000000000000000000000000000000000000000000000000600052603260045260246000fd5b60200101907effffffffffffffffffffffffffffffffffffffffffffffffffffffffffffff1916908160001a905350600a8561121e919061342b565b9450611176565b8093505050505b919050565b6000816040516020016112449190612e44565b6040516020818303038152906040528051906020012060001c9050919050565b60008073ffffffffffffffffffffffffffffffffffffffff166002600084815260200190815260200160002060009054906101000a900473ffffffffffffffffffffffffffffffffffffffff1673ffffffffffffffffffffffffffffffffffffffff1614159050919050565b600033905090565b816004600083815260200190815260200160002060006101000a81548173ffffffffffffffffffffffffffffffffffffffff021916908373ffffffffffffffffffffffffffffffffffffffff160217905550808273ffffffffffffffffffffffffffffffffffffffff1661134b83610a91565b73ffffffffffffffffffffffffffffffffffffffff167f8c5be1e5ebec7d5bd14f71427d1e84f3dd0314c0f7b2291e5b200ac8c7c3b92560405160405180910390a45050565b600081600001549050919050565b606060008251905060008114156113c85760405180602001604052806000815250915050611558565b600060036002836113d991906133d5565b6113e3919061342b565b60046113ef919061345c565b9050600060208261140091906133d5565b67ffffffffffffffff81111561143f577f4e487b7100000000000000000000000000000000000000000000000000000000600052604160045260246000fd5b6040519080825280601f01601f1916602001820160405280156114715781602001600182028036833780820191505090505b509050600060405180606001604052806040815260200161379b604091399050600181016020830160005b868110156115155760038101905062ffffff818a015116603f8160121c168401518060081b905060ff603f83600c1c1686015116810190508060081b905060ff603f8360061c1686015116810190508060081b905060ff603f831686015116810190508060e01b9050808452600484019350505061149c565b50600386066001811461152f576002811461153f5761154a565b613d3d60f01b600283035261154a565b603d60f81b60018303525b508484525050819450505050505b919050565b6115f3816040516024016115719190613081565b6040516020818303038152906040527f41304fac000000000000000000000000000000000000000000000000000000007bffffffffffffffffffffffffffffffffffffffffffffffffffffffff19166020820180517bffffffffffffffffffffffffffffffffffffffffffffffffffffffff8381831617835250505050611cfe565b50565b611610828260405180602001604052806000815250611d27565b5050565b61161d82611264565b61165c576040517f08c379a0000000000000000000000000000000000000000000000000000000008152600401611653906131e1565b60405180910390fd5b806006600084815260200190815260200160002090805190602001906116839291906120ff565b505050565b6001816000016000828254019250508190555050565b6117388383836040516024016116b6939291906130a3565b6040516020818303038152906040527fe3849f79000000000000000000000000000000000000000000000000000000007bffffffffffffffffffffffffffffffffffffffffffffffffffffffff19166020820180517bffffffffffffffffffffffffffffffffffffffffffffffffffffffff8381831617835250505050611cfe565b505050565b600061174882611264565b611787576040517f08c379a000000000000000000000000000000000000000000000000000000000815260040161177e90613161565b60405180910390fd5b600061179283610a91565b90508073ffffffffffffffffffffffffffffffffffffffff168473ffffffffffffffffffffffffffffffffffffffff16148061180157508373ffffffffffffffffffffffffffffffffffffffff166117e98461063b565b73ffffffffffffffffffffffffffffffffffffffff16145b8061181257506118118185610e57565b5b91505092915050565b8273ffffffffffffffffffffffffffffffffffffffff1661183b82610a91565b73ffffffffffffffffffffffffffffffffffffffff1614611891576040517f08c379a000000000000000000000000000000000000000000000000000000000815260040161188890613281565b60405180910390fd5b600073ffffffffffffffffffffffffffffffffffffffff168273ffffffffffffffffffffffffffffffffffffffff161415611901576040517f08c379a00000000000000000000000000000000000000000000000000000000081526004016118f890613121565b60405180910390fd5b61190c838383611d82565b6119176000826112d8565b6001600360008573ffffffffffffffffffffffffffffffffffffffff1673ffffffffffffffffffffffffffffffffffffffff168152602001908152602001600020600082825461196791906134b6565b925050819055506001600360008473ffffffffffffffffffffffffffffffffffffffff1673ffffffffffffffffffffffffffffffffffffffff16815260200190815260200160002060008282546119be91906133d5565b92505081905550816002600083815260200190815260200160002060006101000a81548173ffffffffffffffffffffffffffffffffffffffff021916908373ffffffffffffffffffffffffffffffffffffffff160217905550808273ffffffffffffffffffffffffffffffffffffffff168473ffffffffffffffffffffffffffffffffffffffff167fddf252ad1be2c89b69c2b068fc378daa952ba7f163c4a11628f55a4df523b3ef60405160405180910390a4505050565b8173ffffffffffffffffffffffffffffffffffffffff168373ffffffffffffffffffffffffffffffffffffffff161415611ae6576040517f08c379a0000000000000000000000000000000000000000000000000000000008152600401611add90613141565b60405180910390fd5b80600560008573ffffffffffffffffffffffffffffffffffffffff1673ffffffffffffffffffffffffffffffffffffffff16815260200190815260200160002060008473ffffffffffffffffffffffffffffffffffffffff1673ffffffffffffffffffffffffffffffffffffffff16815260200190815260200160002060006101000a81548160ff0219169083151502179055508173ffffffffffffffffffffffffffffffffffffffff168373ffffffffffffffffffffffffffffffffffffffff167f17307eab39ab6107e8899845ad3d59bd9653f200f220920489ca2b5937696c3183604051611bd79190613066565b60405180910390a3505050565b611bef84848461181b565b611bfb84848484611d87565b611c3a576040517f08c379a0000000000000000000000000000000000000000000000000000000008152600401611c31906130e1565b60405180910390fd5b50505050565b606060405180602001604052806000815250905090565b6060611c6282611264565b611ca1576040517f08c379a0000000000000000000000000000000000000000000000000000000008152600401611c98906132a1565b60405180910390fd5b6000611cab611c40565b90506000815111611ccb5760405180602001604052806000815250611cf6565b80611cd584611084565b604051602001611ce6929190612e5b565b6040516020818303038152906040525b915050919050565b60008151905060006a636f6e736f6c652e6c6f679050602083016000808483855afa5050505050565b611d318383611f1e565b611d3e6000848484611d87565b611d7d576040517f08c379a0000000000000000000000000000000000000000000000000000000008152600401611d74906130e1565b60405180910390fd5b505050565b505050565b6000611da88473ffffffffffffffffffffffffffffffffffffffff166120ec565b15611f11578373ffffffffffffffffffffffffffffffffffffffff1663150b7a02611dd16112d0565b8786866040518563ffffffff1660e01b8152600401611df39493929190612ff1565b602060405180830381600087803b158015611e0d57600080fd5b505af1925050508015611e3e57506040513d601f19601f82011682018060405250810190611e3b9190612443565b60015b611ec1573d8060008114611e6e576040519150601f19603f3d011682016040523d82523d6000602084013e611e73565b606091505b50600081511415611eb9576040517f08c379a0000000000000000000000000000000000000000000000000000000008152600401611eb0906130e1565b60405180910390fd5b805181602001fd5b63150b7a0260e01b7bffffffffffffffffffffffffffffffffffffffffffffffffffffffff1916817bffffffffffffffffffffffffffffffffffffffffffffffffffffffff191614915050611f16565b600190505b949350505050565b600073ffffffffffffffffffffffffffffffffffffffff168273ffffffffffffffffffffffffffffffffffffffff161415611f8e576040517f08c379a0000000000000000000000000000000000000000000000000000000008152600401611f8590613201565b60405180910390fd5b611f9781611264565b15611fd7576040517f08c379a0000000000000000000000000000000000000000000000000000000008152600401611fce90613101565b60405180910390fd5b611fe360008383611d82565b6001600360008473ffffffffffffffffffffffffffffffffffffffff1673ffffffffffffffffffffffffffffffffffffffff168152602001908152602001600020600082825461203391906133d5565b92505081905550816002600083815260200190815260200160002060006101000a81548173ffffffffffffffffffffffffffffffffffffffff021916908373ffffffffffffffffffffffffffffffffffffffff160217905550808273ffffffffffffffffffffffffffffffffffffffff16600073ffffffffffffffffffffffffffffffffffffffff167fddf252ad1be2c89b69c2b068fc378daa952ba7f163c4a11628f55a4df523b3ef60405160405180910390a45050565b600080823b905060008111915050919050565b82805461210b906135a0565b90600052602060002090601f01602090048101928261212d5760008555612174565b82601f1061214657805160ff1916838001178555612174565b82800160010185558215612174579182015b82811115612173578251825591602001919060010190612158565b5b5090506121819190612185565b5090565b5b8082111561219e576000816000905550600101612186565b5090565b60006121b56121b08461334d565b61331c565b9050828152602081018484840111156121cd57600080fd5b6121d884828561355e565b509392505050565b6000813590506121ef81613719565b92915050565b60008135905061220481613730565b92915050565b60008135905061221981613747565b92915050565b60008151905061222e81613747565b92915050565b600082601f83011261224557600080fd5b81356122558482602086016121a2565b91505092915050565b60008135905061226d8161375e565b92915050565b60006020828403121561228557600080fd5b6000612293848285016121e0565b91505092915050565b600080604083850312156122af57600080fd5b60006122bd858286016121e0565b92505060206122ce858286016121e0565b9150509250929050565b6000806000606084860312156122ed57600080fd5b60006122fb868287016121e0565b935050602061230c868287016121e0565b925050604061231d8682870161225e565b9150509250925092565b6000806000806080858703121561233d57600080fd5b600061234b878288016121e0565b945050602061235c878288016121e0565b935050604061236d8782880161225e565b925050606085013567ffffffffffffffff81111561238a57600080fd5b61239687828801612234565b91505092959194509250565b600080604083850312156123b557600080fd5b60006123c3858286016121e0565b92505060206123d4858286016121f5565b9150509250929050565b600080604083850312156123f157600080fd5b60006123ff858286016121e0565b92505060206124108582860161225e565b9150509250929050565b60006020828403121561242c57600080fd5b600061243a8482850161220a565b91505092915050565b60006020828403121561245557600080fd5b60006124638482850161221f565b91505092915050565b60006020828403121561247e57600080fd5b600061248c8482850161225e565b91505092915050565b61249e816134ea565b82525050565b6124ad816134fc565b82525050565b60006124be82613392565b6124c881856133a8565b93506124d881856020860161356d565b6124e181613708565b840191505092915050565b60006124f78261339d565b61250181856133b9565b935061251181856020860161356d565b61251a81613708565b840191505092915050565b60006125308261339d565b61253a81856133ca565b935061254a81856020860161356d565b80840191505092915050565b60008154612563816135a0565b61256d81866133ca565b945060018216600081146125885760018114612599576125cc565b60ff198316865281860193506125cc565b6125a28561337d565b60005b838110156125c4578154818901526001820191506020810190506125a5565b838801955050505b50505092915050565b60006125e26061836133ca565b91507f222c20226465736372697074696f6e223a20222853296d6f6f7468202853297160008301527f756172652028472972616469656e7420636f6c6c656374696f6e222c2022696d60208301527f616765223a2022646174613a696d6167652f7376672b786d6c3b62617365363460408301527f2c000000000000000000000000000000000000000000000000000000000000006060830152606182019050919050565b60006126946032836133b9565b91507f4552433732313a207472616e7366657220746f206e6f6e20455243373231526560008301527f63656976657220696d706c656d656e74657200000000000000000000000000006020830152604082019050919050565b60006126fa601c836133b9565b91507f4552433732313a20746f6b656e20616c7265616479206d696e746564000000006000830152602082019050919050565b600061273a6024836133b9565b91507f4552433732313a207472616e7366657220746f20746865207a65726f2061646460008301527f72657373000000000000000000000000000000000000000000000000000000006020830152604082019050919050565b60006127a06019836133b9565b91507f4552433732313a20617070726f766520746f2063616c6c6572000000000000006000830152602082019050919050565b60006127e0602c836133b9565b91507f4552433732313a206f70657261746f7220717565727920666f72206e6f6e657860008301527f697374656e7420746f6b656e00000000000000000000000000000000000000006020830152604082019050919050565b60006128466038836133b9565b91507f4552433732313a20617070726f76652063616c6c6572206973206e6f74206f7760008301527f6e6572206e6f7220617070726f76656420666f7220616c6c00000000000000006020830152604082019050919050565b60006128ac602a836133b9565b91507f4552433732313a2062616c616e636520717565727920666f7220746865207a6560008301527f726f2061646472657373000000000000000000000000000000000000000000006020830152604082019050919050565b60006129126029836133b9565b91507f4552433732313a206f776e657220717565727920666f72206e6f6e657869737460008301527f656e7420746f6b656e00000000000000000000000000000000000000000000006020830152604082019050919050565b6000612978602e836133b9565b91507f45524337323155524953746f726167653a2055524920736574206f66206e6f6e60008301527f6578697374656e7420746f6b656e0000000000000000000000000000000000006020830152604082019050919050565b60006129de600e836133ca565b91507f4752414449454e545f53544152540000000000000000000000000000000000006000830152600e82019050919050565b6000612a1e6002836133ca565b91507f227d0000000000000000000000000000000000000000000000000000000000006000830152600282019050919050565b6000612a5e6020836133b9565b91507f4552433732313a206d696e7420746f20746865207a65726f20616464726573736000830152602082019050919050565b6000612a9e6019836133b9565b91507f416c6c204e4654732068617665206265656e206d696e746564000000000000006000830152602082019050919050565b6000612ade6031836133b9565b91507f45524337323155524953746f726167653a2055524920717565727920666f722060008301527f6e6f6e6578697374656e7420746f6b656e0000000000000000000000000000006020830152604082019050919050565b6000612b44602c836133b9565b91507f4552433732313a20617070726f76656420717565727920666f72206e6f6e657860008301527f697374656e7420746f6b656e00000000000000000000000000000000000000006020830152604082019050919050565b6000612baa6029836133b9565b91507f4552433732313a207472616e73666572206f6620746f6b656e2074686174206960008301527f73206e6f74206f776e00000000000000000000000000000000000000000000006020830152604082019050919050565b6000612c10602f836133b9565b91507f4552433732314d657461646174613a2055524920717565727920666f72206e6f60008301527f6e6578697374656e7420746f6b656e00000000000000000000000000000000006020830152604082019050919050565b6000612c76600a836133ca565b91507f7b226e616d65223a2022000000000000000000000000000000000000000000006000830152600a82019050919050565b6000612cb6600c836133ca565b91507f4752414449454e545f454e4400000000000000000000000000000000000000006000830152600c82019050919050565b6000612cf66021836133b9565b91507f4552433732313a20617070726f76616c20746f2063757272656e74206f776e6560008301527f72000000000000000000000000000000000000000000000000000000000000006020830152604082019050919050565b6000612d5c601d836133ca565b91507f646174613a6170706c69636174696f6e2f6a736f6e3b6261736536342c0000006000830152601d82019050919050565b6000612d9c6031836133b9565b91507f4552433732313a207472616e736665722063616c6c6572206973206e6f74206f60008301527f776e6572206e6f7220617070726f7665640000000000000000000000000000006020830152604082019050919050565b6000612e026001836133ca565b91507f2d000000000000000000000000000000000000000000000000000000000000006000830152600182019050919050565b612e3e81613554565b82525050565b6000612e508284612525565b915081905092915050565b6000612e678285612525565b9150612e738284612525565b91508190509392505050565b6000612e8b8285612525565b9150612e9682612df5565b9150612ea28284612525565b91508190509392505050565b6000612eba828b612556565b9150612ec6828a612525565b9150612ed28289612556565b9150612ede8288612525565b9150612eea8287612556565b9150612ef68286612525565b9150612f0182612df5565b9150612f0d8285612525565b9150612f198284612556565b91508190509998505050505050505050565b6000612f36826129d1565b9150612f428284612525565b915081905092915050565b6000612f5882612c69565b9150612f648285612525565b9150612f6f826125d5565b9150612f7b8284612525565b9150612f8682612a11565b91508190509392505050565b6000612f9d82612ca9565b9150612fa98284612525565b915081905092915050565b6000612fbf82612d4f565b9150612fcb8284612525565b915081905092915050565b6000602082019050612feb6000830184612495565b92915050565b60006080820190506130066000830187612495565b6130136020830186612495565b6130206040830185612e35565b818103606083015261303281846124b3565b905095945050505050565b60006040820190506130526000830185612495565b61305f6020830184612e35565b9392505050565b600060208201905061307b60008301846124a4565b92915050565b6000602082019050818103600083015261309b81846124ec565b905092915050565b600060608201905081810360008301526130bd81866124ec565b90506130cc6020830185612e35565b6130d96040830184612495565b949350505050565b600060208201905081810360008301526130fa81612687565b9050919050565b6000602082019050818103600083015261311a816126ed565b9050919050565b6000602082019050818103600083015261313a8161272d565b9050919050565b6000602082019050818103600083015261315a81612793565b9050919050565b6000602082019050818103600083015261317a816127d3565b9050919050565b6000602082019050818103600083015261319a81612839565b9050919050565b600060208201905081810360008301526131ba8161289f565b9050919050565b600060208201905081810360008301526131da81612905565b9050919050565b600060208201905081810360008301526131fa8161296b565b9050919050565b6000602082019050818103600083015261321a81612a51565b9050919050565b6000602082019050818103600083015261323a81612a91565b9050919050565b6000602082019050818103600083015261325a81612ad1565b9050919050565b6000602082019050818103600083015261327a81612b37565b9050919050565b6000602082019050818103600083015261329a81612b9d565b9050919050565b600060208201905081810360008301526132ba81612c03565b9050919050565b600060208201905081810360008301526132da81612ce9565b9050919050565b600060208201905081810360008301526132fa81612d8f565b9050919050565b60006020820190506133166000830184612e35565b92915050565b6000604051905081810181811067ffffffffffffffff82111715613343576133426136d9565b5b8060405250919050565b600067ffffffffffffffff821115613368576133676136d9565b5b601f19601f8301169050602081019050919050565b60008190508160005260206000209050919050565b600081519050919050565b600081519050919050565b600082825260208201905092915050565b600082825260208201905092915050565b600081905092915050565b60006133e082613554565b91506133eb83613554565b9250827fffffffffffffffffffffffffffffffffffffffffffffffffffffffffffffffff038211156134205761341f61364c565b5b828201905092915050565b600061343682613554565b915061344183613554565b9250826134515761345061367b565b5b828204905092915050565b600061346782613554565b915061347283613554565b9250817fffffffffffffffffffffffffffffffffffffffffffffffffffffffffffffffff04831182151516156134ab576134aa61364c565b5b828202905092915050565b60006134c182613554565b91506134cc83613554565b9250828210156134df576134de61364c565b5b828203905092915050565b60006134f582613534565b9050919050565b60008115159050919050565b60007fffffffff0000000000000000000000000000000000000000000000000000000082169050919050565b600073ffffffffffffffffffffffffffffffffffffffff82169050919050565b6000819050919050565b82818337600083830152505050565b60005b8381101561358b578082015181840152602081019050613570565b8381111561359a576000848401525b50505050565b600060028204905060018216806135b857607f821691505b602082108114156135cc576135cb6136aa565b5b50919050565b60006135dd82613554565b91507fffffffffffffffffffffffffffffffffffffffffffffffffffffffffffffffff8214156136105761360f61364c565b5b600182019050919050565b600061362682613554565b915061363183613554565b9250826136415761364061367b565b5b828206905092915050565b7f4e487b7100000000000000000000000000000000000000000000000000000000600052601160045260246000fd5b7f4e487b7100000000000000000000000000000000000000000000000000000000600052601260045260246000fd5b7f4e487b7100000000000000000000000000000000000000000000000000000000600052602260045260246000fd5b7f4e487b7100000000000000000000000000000000000000000000000000000000600052604160045260246000fd5b6000601f19601f8301169050919050565b613722816134ea565b811461372d57600080fd5b50565b613739816134fc565b811461374457600080fd5b50565b61375081613508565b811461375b57600080fd5b50565b61376781613554565b811461377257600080fd5b5056fe416e204e465420772f20494420257320686173206265656e206d696e74656420746f2025734142434445464748494a4b4c4d4e4f505152535455565758595a6162636465666768696a6b6c6d6e6f707172737475767778797a303132333435363738392b2fa26469706673582212207895215dee5bba24f22a47aa6877cb12a9ba0d7eeb27ca794c4f757e19767eff64736f6c634300080000333b73746f702d6f7061636974793a31272f3e3c73746f70206f66667365743d273130302527207374796c653d2773746f702d636f6c6f723a3c73766720786d6c6e733d27687474703a2f2f7777772e77332e6f72672f323030302f73766727207072657365727665417370656374526174696f3d27784d696e594d696e206d656574272076696577426f783d273020302033353020333530273e3c646566733e3c6c696e6561724772616469656e742069643d2761272078313d273025272079313d27353025272078323d2731303025272079323d27353025273e3c73746f70206f66667365743d27302527207374796c653d2773746f702d636f6c6f723a3b73746f702d6f7061636974793a31272f3e3c2f6c696e6561724772616469656e743e3c2f646566733e3c726563742077696474683d273130302527206865696768743d2731303025272066696c6c3d2775726c28236129272f3e3c7465787420783d273530252720793d273530252720636c6173733d2762617365272066696c6c3d27233333332720646f6d696e616e742d626173656c696e653d276d6964646c652720746578742d616e63686f723d276d6964646c65273e",
  "linkReferences": {},
  "deployedLinkReferences": {}
}